{
  "_format": "hh-sol-artifact-1",
  "contractName": "FiatSend",
  "sourceName": "contracts/Fiatsend.sol",
  "abi": [
    {
      "inputs": [],
      "stateMutability": "nonpayable",
      "type": "constructor"
    },
    {
      "inputs": [
        {
          "internalType": "address",
          "name": "target",
          "type": "address"
        }
      ],
      "name": "AddressEmptyCode",
      "type": "error"
    },
    {
      "inputs": [
        {
          "internalType": "address",
          "name": "implementation",
          "type": "address"
        }
      ],
      "name": "ERC1967InvalidImplementation",
      "type": "error"
    },
    {
      "inputs": [],
      "name": "ERC1967NonPayable",
      "type": "error"
    },
    {
      "inputs": [],
      "name": "ExceedsTransactionLimit",
      "type": "error"
    },
    {
      "inputs": [],
      "name": "FailedCall",
      "type": "error"
    },
    {
      "inputs": [],
      "name": "GHSFIATTransferFailed",
      "type": "error"
    },
    {
      "inputs": [],
      "name": "InsufficientAllowance",
      "type": "error"
    },
    {
      "inputs": [],
      "name": "InsufficientBalance",
      "type": "error"
    },
    {
      "inputs": [],
      "name": "InsufficientGHSFIATBalance",
      "type": "error"
    },
    {
      "inputs": [],
      "name": "InvalidInitialization",
      "type": "error"
    },
    {
      "inputs": [],
      "name": "InvalidKYCLevel",
      "type": "error"
    },
    {
      "inputs": [],
      "name": "NotInitializing",
      "type": "error"
    },
    {
      "inputs": [],
      "name": "NotKYCAdmin",
      "type": "error"
    },
    {
      "inputs": [
        {
          "internalType": "address",
          "name": "owner",
          "type": "address"
        }
      ],
      "name": "OwnableInvalidOwner",
      "type": "error"
    },
    {
      "inputs": [
        {
          "internalType": "address",
          "name": "account",
          "type": "address"
        }
      ],
      "name": "OwnableUnauthorizedAccount",
      "type": "error"
    },
    {
      "inputs": [],
      "name": "ReentrancyGuardReentrantCall",
      "type": "error"
    },
    {
      "inputs": [],
      "name": "TransferFailed",
      "type": "error"
    },
    {
      "inputs": [],
      "name": "UUPSUnauthorizedCallContext",
      "type": "error"
    },
    {
      "inputs": [
        {
          "internalType": "bytes32",
          "name": "slot",
          "type": "bytes32"
        }
      ],
      "name": "UUPSUnsupportedProxiableUUID",
      "type": "error"
    },
    {
      "inputs": [],
      "name": "ZeroAddressNotAllowed",
      "type": "error"
    },
    {
      "inputs": [],
      "name": "ZeroAmount",
      "type": "error"
    },
    {
      "anonymous": false,
      "inputs": [
        {
          "indexed": false,
          "internalType": "uint256",
          "name": "newRate",
          "type": "uint256"
        }
      ],
      "name": "ConversionRateUpdated",
      "type": "event"
    },
    {
      "anonymous": false,
      "inputs": [
        {
          "indexed": true,
          "internalType": "address",
          "name": "user",
          "type": "address"
        },
        {
          "indexed": false,
          "internalType": "uint256",
          "name": "usdtAmount",
          "type": "uint256"
        },
        {
          "indexed": false,
          "internalType": "uint256",
          "name": "fiatAmount",
          "type": "uint256"
        }
      ],
      "name": "FiatSent",
      "type": "event"
    },
    {
      "anonymous": false,
      "inputs": [
        {
          "indexed": false,
          "internalType": "uint64",
          "name": "version",
          "type": "uint64"
        }
      ],
      "name": "Initialized",
      "type": "event"
    },
    {
      "anonymous": false,
      "inputs": [
        {
          "indexed": false,
          "internalType": "address",
          "name": "newKycAdmin",
          "type": "address"
        }
      ],
      "name": "KYCAdminUpdated",
      "type": "event"
    },
    {
      "anonymous": false,
      "inputs": [
        {
          "indexed": true,
          "internalType": "address",
          "name": "user",
          "type": "address"
        },
        {
          "indexed": false,
          "internalType": "uint8",
          "name": "level",
          "type": "uint8"
        }
      ],
      "name": "KYCVerified",
      "type": "event"
    },
    {
      "anonymous": false,
      "inputs": [
        {
          "indexed": true,
          "internalType": "address",
          "name": "previousOwner",
          "type": "address"
        },
        {
          "indexed": true,
          "internalType": "address",
          "name": "newOwner",
          "type": "address"
        }
      ],
      "name": "OwnershipTransferred",
      "type": "event"
    },
    {
      "anonymous": false,
      "inputs": [
        {
          "indexed": true,
          "internalType": "address",
          "name": "user",
          "type": "address"
        },
        {
          "indexed": false,
          "internalType": "uint256",
          "name": "amount",
          "type": "uint256"
        },
        {
          "indexed": false,
          "internalType": "uint256",
          "name": "ghsAmount",
          "type": "uint256"
        }
      ],
      "name": "StablecoinReceived",
      "type": "event"
    },
    {
      "anonymous": false,
      "inputs": [
        {
          "indexed": true,
          "internalType": "address",
          "name": "implementation",
          "type": "address"
        }
      ],
      "name": "Upgraded",
      "type": "event"
    },
    {
      "stateMutability": "payable",
      "type": "fallback"
    },
    {
      "inputs": [],
      "name": "UPGRADE_INTERFACE_VERSION",
      "outputs": [
        {
          "internalType": "string",
          "name": "",
          "type": "string"
        }
      ],
      "stateMutability": "view",
      "type": "function"
    },
    {
      "inputs": [],
      "name": "conversionRate",
      "outputs": [
        {
          "internalType": "uint256",
          "name": "",
          "type": "uint256"
        }
      ],
      "stateMutability": "view",
      "type": "function"
    },
    {
      "inputs": [],
      "name": "ghsFiatToken",
      "outputs": [
        {
          "internalType": "contract ERC20Upgradeable",
          "name": "",
          "type": "address"
        }
      ],
      "stateMutability": "view",
      "type": "function"
    },
    {
      "inputs": [
        {
          "internalType": "address",
          "name": "_stablecoinAddress",
          "type": "address"
        },
        {
          "internalType": "uint256",
          "name": "_conversionRate",
          "type": "uint256"
        },
        {
          "internalType": "address",
          "name": "_ghsFiatToken",
          "type": "address"
        },
        {
          "internalType": "address",
          "name": "_kycAdmin",
          "type": "address"
        }
      ],
      "name": "initialize",
      "outputs": [],
      "stateMutability": "nonpayable",
      "type": "function"
    },
    {
      "inputs": [],
      "name": "kycAdmin",
      "outputs": [
        {
          "internalType": "address",
          "name": "",
          "type": "address"
        }
      ],
      "stateMutability": "view",
      "type": "function"
    },
    {
      "inputs": [
        {
          "internalType": "address",
          "name": "",
          "type": "address"
        }
      ],
      "name": "kycLevel",
      "outputs": [
        {
          "internalType": "uint8",
          "name": "",
          "type": "uint8"
        }
      ],
      "stateMutability": "view",
      "type": "function"
    },
    {
      "inputs": [
        {
          "internalType": "address",
          "name": "",
          "type": "address"
        }
      ],
      "name": "monthlySpent",
      "outputs": [
        {
          "internalType": "uint256",
          "name": "",
          "type": "uint256"
        }
      ],
      "stateMutability": "view",
      "type": "function"
    },
    {
      "inputs": [
        {
          "internalType": "uint256",
          "name": "amount",
          "type": "uint256"
        }
      ],
      "name": "offRamp",
      "outputs": [],
      "stateMutability": "nonpayable",
      "type": "function"
    },
    {
      "inputs": [],
      "name": "owner",
      "outputs": [
        {
          "internalType": "address",
          "name": "",
          "type": "address"
        }
      ],
      "stateMutability": "view",
      "type": "function"
    },
    {
      "inputs": [],
      "name": "proxiableUUID",
      "outputs": [
        {
          "internalType": "bytes32",
          "name": "",
          "type": "bytes32"
        }
      ],
      "stateMutability": "view",
      "type": "function"
    },
    {
      "inputs": [],
      "name": "renounceOwnership",
      "outputs": [],
      "stateMutability": "nonpayable",
      "type": "function"
    },
    {
      "inputs": [
        {
          "internalType": "address",
          "name": "_kycAdmin",
          "type": "address"
        }
      ],
      "name": "setKYCAdmin",
      "outputs": [],
      "stateMutability": "nonpayable",
      "type": "function"
    },
    {
      "inputs": [],
      "name": "stablecoinAddress",
      "outputs": [
        {
          "internalType": "address",
          "name": "",
          "type": "address"
        }
      ],
      "stateMutability": "view",
      "type": "function"
    },
    {
      "inputs": [
        {
          "internalType": "address",
          "name": "",
          "type": "address"
        }
      ],
      "name": "totalOffRampAmount",
      "outputs": [
        {
          "internalType": "uint256",
          "name": "",
          "type": "uint256"
        }
      ],
      "stateMutability": "view",
      "type": "function"
    },
    {
      "inputs": [
        {
          "internalType": "address",
          "name": "newOwner",
          "type": "address"
        }
      ],
      "name": "transferOwnership",
      "outputs": [],
      "stateMutability": "nonpayable",
      "type": "function"
    },
    {
      "inputs": [
        {
          "internalType": "uint256",
          "name": "newRate",
          "type": "uint256"
        }
      ],
      "name": "updateConversionRate",
      "outputs": [],
      "stateMutability": "nonpayable",
      "type": "function"
    },
    {
      "inputs": [
        {
          "internalType": "address",
          "name": "user",
          "type": "address"
        },
        {
          "internalType": "uint8",
          "name": "level",
          "type": "uint8"
        }
      ],
      "name": "updateKYCStatus",
      "outputs": [],
      "stateMutability": "nonpayable",
      "type": "function"
    },
    {
      "inputs": [
        {
          "internalType": "address",
          "name": "newImplementation",
          "type": "address"
        },
        {
          "internalType": "bytes",
          "name": "data",
          "type": "bytes"
        }
      ],
      "name": "upgradeToAndCall",
      "outputs": [],
      "stateMutability": "payable",
      "type": "function"
    },
    {
      "stateMutability": "payable",
      "type": "receive"
    }
  ],
  "bytecode": "0x60a06040523060805234801561001457600080fd5b5061001d610022565b6100d4565b7ff0c57e16840df040f15088dc2f81fe391c3923bec73e23a9662efc9c229c6a00805468010000000000000000900460ff16156100725760405163f92ee8a960e01b815260040160405180910390fd5b80546001600160401b03908116146100d15780546001600160401b0319166001600160401b0390811782556040519081527fc7f505b2f371ae2175ee4913f4499e1f2633a7b5936321eed1cdaeb6115181d29060200160405180910390a15b50565b6080516115676100fd60003960008181610d3c01528181610d650152610eab01526115676000f3fe60806040526004361061010d5760003560e01c80637ffdf53e11610095578063ad3cb1cc11610064578063ad3cb1cc1461037c578063af05816a146103ba578063ec9e7971146103da578063f2fde38b146103fa578063f887a9901461041a57610153565b80637ffdf53e146102dc57806387fcdbc1146102f25780638da5cb5b14610312578063976734671461034f57610153565b80634f1ef286116100dc5780634f1ef2861461025157806352d1902d14610264578063615737ef146102875780636cdc0a0a146102a7578063715018a6146102c757610153565b8063358394d814610190578063387eb1c4146101b2578063409f8c48146101f957806349ba8efc1461021957610153565b366101535760405162461bcd60e51b8152602060048201526011602482015270115512081b9bdd081cdd5c1c1bdc9d1959607a1b60448201526064015b60405180910390fd5b60405162461bcd60e51b8152602060048201526012602482015271119d5b98dd1a5bdb881b9bdd08199bdd5b9960721b604482015260640161014a565b34801561019c57600080fd5b506101b06101ab366004611263565b610447565b005b3480156101be57600080fd5b506101e26101cd3660046112b0565b60046020526000908152604090205460ff1681565b60405160ff90911681526020015b60405180910390f35b34801561020557600080fd5b506101b06102143660046112b0565b6105f9565b34801561022557600080fd5b50600254610239906001600160a01b031681565b6040516001600160a01b0390911681526020016101f0565b6101b061025f3660046112e1565b61067d565b34801561027057600080fd5b5061027961069c565b6040519081526020016101f0565b34801561029357600080fd5b50600054610239906001600160a01b031681565b3480156102b357600080fd5b506101b06102c23660046113ab565b6106b9565b3480156102d357600080fd5b506101b0610790565b3480156102e857600080fd5b5061027960015481565b3480156102fe57600080fd5b506101b061030d3660046113e8565b6107a4565b34801561031e57600080fd5b507f9016d09d72d40fdae2fd8ceac6b6234c7706214fd39c1cd1e609a0528c199300546001600160a01b0316610239565b34801561035b57600080fd5b5061027961036a3660046112b0565b60066020526000908152604090205481565b34801561038857600080fd5b506103ad604051806040016040528060058152602001640352e302e360dc1b81525081565b6040516101f09190611425565b3480156103c657600080fd5b506101b06103d53660046113e8565b6107e0565b3480156103e657600080fd5b50600354610239906001600160a01b031681565b34801561040657600080fd5b506101b06104153660046112b0565b610c72565b34801561042657600080fd5b506102796104353660046112b0565b60056020526000908152604090205481565b7ff0c57e16840df040f15088dc2f81fe391c3923bec73e23a9662efc9c229c6a008054600160401b810460ff16159067ffffffffffffffff1660008115801561048d5750825b905060008267ffffffffffffffff1660011480156104aa5750303b155b9050811580156104b8575080155b156104d65760405163f92ee8a960e01b815260040160405180910390fd5b845467ffffffffffffffff19166001178555831561050057845460ff60401b1916600160401b1785555b61050933610cad565b610511610cbe565b610519610cc6565b6001600160a01b038916158061053657506001600160a01b038716155b8061054857506001600160a01b038616155b15610566576040516342bcdf7f60e11b815260040160405180910390fd5b600080546001600160a01b03808c166001600160a01b03199283161790925560018a9055600280548a8416908316179055600380549289169290911691909117905583156105ee57845460ff60401b19168555604051600181527fc7f505b2f371ae2175ee4913f4499e1f2633a7b5936321eed1cdaeb6115181d29060200160405180910390a15b505050505050505050565b610601610cd6565b6001600160a01b038116610628576040516342bcdf7f60e11b815260040160405180910390fd5b600380546001600160a01b0319166001600160a01b0383169081179091556040519081527fa0ca161b1de377a07b59a6c960bda2feb27c9e47397c6e8e8296f4a093a13401906020015b60405180910390a150565b610685610d31565b61068e82610dd6565b6106988282610dde565b5050565b60006106a6610ea0565b5060008051602061151283398151915290565b6003546001600160a01b031633146106e457604051631284945b60e01b815260040160405180910390fd5b6001600160a01b03821661070b576040516342bcdf7f60e11b815260040160405180910390fd5b60028160ff16111561073057604051633d98a22f60e21b815260040160405180910390fd5b6001600160a01b038216600081815260046020908152604091829020805460ff191660ff861690811790915591519182527f5901206b39a68f7382670879562e87f070c1b1e9b39a271c4b1d1a4993a0ea0a910160405180910390a25050565b610798610cd6565b6107a26000610ee9565b565b6107ac610cd6565b60018190556040518181527eb22dee8d85ff5215d4c68cdb3f5864f9e51f23b5c76363187afaacab3906e790602001610672565b6107e8610f5a565b8060000361080957604051631f2a200560e01b815260040160405180910390fd5b3360008181526004602052604081205460ff169061082682610fa4565b9050600060ff831615610851576001600160a01b03841660009081526005602052604090205461086b565b6001600160a01b0384166000908152600660205260409020545b905081610878868361146e565b11156108975760405163e0f1169360e01b815260040160405180910390fd5b600054600254604051636eb1769f60e11b81526001600160a01b03878116600483015230602483015292831692909116908790839063dd62ed3e90604401602060405180830381865afa1580156108f2573d6000803e3d6000fd5b505050506040513d601f19601f820116820180604052508101906109169190611481565b1015610935576040516313be252b60e01b815260040160405180910390fd5b6040516370a0823160e01b81526001600160a01b0387811660048301528891908416906370a0823190602401602060405180830381865afa15801561097e573d6000803e3d6000fd5b505050506040513d601f19601f820116820180604052508101906109a29190611481565b10156109c157604051631e9acf1760e31b815260040160405180910390fd5b6040516323b872dd60e01b81526001600160a01b038781166004830152306024830152604482018990528316906323b872dd906064016020604051808303816000875af1158015610a16573d6000803e3d6000fd5b505050506040513d601f19601f82011682018060405250810190610a3a919061149a565b610a57576040516312171d8360e31b815260040160405180910390fd5b6000606460015489610a6991906114bc565b610a7391906114d3565b6040516370a0823160e01b815230600482015290915081906001600160a01b038416906370a0823190602401602060405180830381865afa158015610abc573d6000803e3d6000fd5b505050506040513d601f19601f82011682018060405250810190610ae09190611481565b1015610aff57604051633c5cb9ef60e01b815260040160405180910390fd5b60405163a9059cbb60e01b81526001600160a01b0388811660048301526024820183905283169063a9059cbb906044016020604051808303816000875af1158015610b4e573d6000803e3d6000fd5b505050506040513d601f19601f82011682018060405250810190610b72919061149a565b610b8f57604051630630ec2560e01b815260040160405180910390fd5b8560ff16600003610bcd576001600160a01b038716600090815260066020526040812080548a9290610bc290849061146e565b90915550610bfb9050565b6001600160a01b038716600090815260056020526040812080548a9290610bf590849061146e565b90915550505b60408051898152602081018390526001600160a01b038916917f5cce667400eaa8cc1f7247812b6a21b0d77e95837e95e201ed878d56ffde372c910160405180910390a250505050505050610c6f60017f9b779b17422d0df92223018b32b4d1fa46e071723d6817e2486d003becc55f0055565b50565b610c7a610cd6565b6001600160a01b038116610ca457604051631e4fbdf760e01b81526000600482015260240161014a565b610c6f81610ee9565b610cb5611014565b610c6f8161105d565b6107a2611014565b610cce611014565b6107a2611065565b33610d087f9016d09d72d40fdae2fd8ceac6b6234c7706214fd39c1cd1e609a0528c199300546001600160a01b031690565b6001600160a01b0316146107a25760405163118cdaa760e01b815233600482015260240161014a565b306001600160a01b037f0000000000000000000000000000000000000000000000000000000000000000161480610db857507f00000000000000000000000000000000000000000000000000000000000000006001600160a01b0316610dac600080516020611512833981519152546001600160a01b031690565b6001600160a01b031614155b156107a25760405163703e46dd60e11b815260040160405180910390fd5b610c6f610cd6565b816001600160a01b03166352d1902d6040518163ffffffff1660e01b8152600401602060405180830381865afa925050508015610e38575060408051601f3d908101601f19168201909252610e3591810190611481565b60015b610e6057604051634c9c8ce360e01b81526001600160a01b038316600482015260240161014a565b6000805160206115128339815191528114610e9157604051632a87526960e21b81526004810182905260240161014a565b610e9b838361106d565b505050565b306001600160a01b037f000000000000000000000000000000000000000000000000000000000000000016146107a25760405163703e46dd60e11b815260040160405180910390fd5b7f9016d09d72d40fdae2fd8ceac6b6234c7706214fd39c1cd1e609a0528c19930080546001600160a01b031981166001600160a01b03848116918217845560405192169182907f8be0079c531659141344cd1fd0a4f28419497f9722a3daafe3b4186f6b6457e090600090a3505050565b7f9b779b17422d0df92223018b32b4d1fa46e071723d6817e2486d003becc55f00805460011901610f9e57604051633ee5aeb560e01b815260040160405180910390fd5b60029055565b60008160ff16600103610fc2575069152d02c7e14af6800000919050565b8160ff16600203610fde57506969e10de76676d0800000919050565b50683635c9adc5dea00000919050565b60017f9b779b17422d0df92223018b32b4d1fa46e071723d6817e2486d003becc55f0055565b7ff0c57e16840df040f15088dc2f81fe391c3923bec73e23a9662efc9c229c6a0054600160401b900460ff166107a257604051631afcd79f60e31b815260040160405180910390fd5b610c7a611014565b610fee611014565b611076826110c3565b6040516001600160a01b038316907fbc7cd75a20ee27fd9adebab32041f755214dbc6bffa90cc0225b39da2e5c2d3b90600090a28051156110bb57610e9b8282611128565b6106986111a0565b806001600160a01b03163b6000036110f957604051634c9c8ce360e01b81526001600160a01b038216600482015260240161014a565b60008051602061151283398151915280546001600160a01b0319166001600160a01b0392909216919091179055565b6060600080846001600160a01b03168460405161114591906114f5565b600060405180830381855af49150503d8060008114611180576040519150601f19603f3d011682016040523d82523d6000602084013e611185565b606091505b50915091506111958583836111bf565b925050505b92915050565b34156107a25760405163b398979f60e01b815260040160405180910390fd5b6060826111d4576111cf8261121e565b611217565b81511580156111eb57506001600160a01b0384163b155b1561121457604051639996b31560e01b81526001600160a01b038516600482015260240161014a565b50805b9392505050565b80511561122e5780518082602001fd5b60405163d6bda27560e01b815260040160405180910390fd5b80356001600160a01b038116811461125e57600080fd5b919050565b6000806000806080858703121561127957600080fd5b61128285611247565b93506020850135925061129760408601611247565b91506112a560608601611247565b905092959194509250565b6000602082840312156112c257600080fd5b61121782611247565b634e487b7160e01b600052604160045260246000fd5b600080604083850312156112f457600080fd5b6112fd83611247565b9150602083013567ffffffffffffffff81111561131957600080fd5b8301601f8101851361132a57600080fd5b803567ffffffffffffffff811115611344576113446112cb565b604051601f8201601f19908116603f0116810167ffffffffffffffff81118282101715611373576113736112cb565b60405281815282820160200187101561138b57600080fd5b816020840160208301376000602083830101528093505050509250929050565b600080604083850312156113be57600080fd5b6113c783611247565b9150602083013560ff811681146113dd57600080fd5b809150509250929050565b6000602082840312156113fa57600080fd5b5035919050565b60005b8381101561141c578181015183820152602001611404565b50506000910152565b6020815260008251806020840152611444816040850160208701611401565b601f01601f19169190910160400192915050565b634e487b7160e01b600052601160045260246000fd5b8082018082111561119a5761119a611458565b60006020828403121561149357600080fd5b5051919050565b6000602082840312156114ac57600080fd5b8151801515811461121757600080fd5b808202811582820484141761119a5761119a611458565b6000826114f057634e487b7160e01b600052601260045260246000fd5b500490565b60008251611507818460208701611401565b919091019291505056fe360894a13ba1a3210667c828492db98dca3e2076cc3735a920a3ca505d382bbca2646970667358221220e21e504afee71079df88b021f911872820bd3b562ffe76ef3e1e51ebc2cbb49a64736f6c634300081b0033",
  "linkReferences": {},
  "deployedLinkReferences": {}
}