{
  "_format": "hh-sol-artifact-1",
  "contractName": "MobileNumberNFT",
  "sourceName": "contracts/MobileNumberNFT.sol",
  "abi": [
    {
      "inputs": [
        {
          "internalType": "address",
          "name": "sender",
          "type": "address"
        },
        {
          "internalType": "uint256",
          "name": "tokenId",
          "type": "uint256"
        },
        {
          "internalType": "address",
          "name": "owner",
          "type": "address"
        }
      ],
      "name": "ERC721IncorrectOwner",
      "type": "error"
    },
    {
      "inputs": [
        {
          "internalType": "address",
          "name": "operator",
          "type": "address"
        },
        {
          "internalType": "uint256",
          "name": "tokenId",
          "type": "uint256"
        }
      ],
      "name": "ERC721InsufficientApproval",
      "type": "error"
    },
    {
      "inputs": [
        {
          "internalType": "address",
          "name": "approver",
          "type": "address"
        }
      ],
      "name": "ERC721InvalidApprover",
      "type": "error"
    },
    {
      "inputs": [
        {
          "internalType": "address",
          "name": "operator",
          "type": "address"
        }
      ],
      "name": "ERC721InvalidOperator",
      "type": "error"
    },
    {
      "inputs": [
        {
          "internalType": "address",
          "name": "owner",
          "type": "address"
        }
      ],
      "name": "ERC721InvalidOwner",
      "type": "error"
    },
    {
      "inputs": [
        {
          "internalType": "address",
          "name": "receiver",
          "type": "address"
        }
      ],
      "name": "ERC721InvalidReceiver",
      "type": "error"
    },
    {
      "inputs": [
        {
          "internalType": "address",
          "name": "sender",
          "type": "address"
        }
      ],
      "name": "ERC721InvalidSender",
      "type": "error"
    },
    {
      "inputs": [
        {
          "internalType": "uint256",
          "name": "tokenId",
          "type": "uint256"
        }
      ],
      "name": "ERC721NonexistentToken",
      "type": "error"
    },
    {
      "inputs": [],
      "name": "InvalidInitialization",
      "type": "error"
    },
    {
      "inputs": [],
      "name": "NotInitializing",
      "type": "error"
    },
    {
      "inputs": [
        {
          "internalType": "address",
          "name": "owner",
          "type": "address"
        }
      ],
      "name": "OwnableInvalidOwner",
      "type": "error"
    },
    {
      "inputs": [
        {
          "internalType": "address",
          "name": "account",
          "type": "address"
        }
      ],
      "name": "OwnableUnauthorizedAccount",
      "type": "error"
    },
    {
      "anonymous": false,
      "inputs": [
        {
          "indexed": true,
          "internalType": "address",
          "name": "owner",
          "type": "address"
        },
        {
          "indexed": true,
          "internalType": "address",
          "name": "approved",
          "type": "address"
        },
        {
          "indexed": true,
          "internalType": "uint256",
          "name": "tokenId",
          "type": "uint256"
        }
      ],
      "name": "Approval",
      "type": "event"
    },
    {
      "anonymous": false,
      "inputs": [
        {
          "indexed": true,
          "internalType": "address",
          "name": "owner",
          "type": "address"
        },
        {
          "indexed": true,
          "internalType": "address",
          "name": "operator",
          "type": "address"
        },
        {
          "indexed": false,
          "internalType": "bool",
          "name": "approved",
          "type": "bool"
        }
      ],
      "name": "ApprovalForAll",
      "type": "event"
    },
    {
      "anonymous": false,
      "inputs": [
        {
          "indexed": false,
          "internalType": "uint256",
          "name": "_fromTokenId",
          "type": "uint256"
        },
        {
          "indexed": false,
          "internalType": "uint256",
          "name": "_toTokenId",
          "type": "uint256"
        }
      ],
      "name": "BatchMetadataUpdate",
      "type": "event"
    },
    {
      "anonymous": false,
      "inputs": [
        {
          "indexed": false,
          "internalType": "uint64",
          "name": "version",
          "type": "uint64"
        }
      ],
      "name": "Initialized",
      "type": "event"
    },
    {
      "anonymous": false,
      "inputs": [
        {
          "indexed": false,
          "internalType": "uint256",
          "name": "_tokenId",
          "type": "uint256"
        }
      ],
      "name": "MetadataUpdate",
      "type": "event"
    },
    {
      "anonymous": false,
      "inputs": [
        {
          "indexed": true,
          "internalType": "address",
          "name": "wallet",
          "type": "address"
        },
        {
          "indexed": false,
          "internalType": "bytes32",
          "name": "mobileHash",
          "type": "bytes32"
        },
        {
          "indexed": false,
          "internalType": "uint256",
          "name": "tokenId",
          "type": "uint256"
        }
      ],
      "name": "MobileRegistered",
      "type": "event"
    },
    {
      "anonymous": false,
      "inputs": [
        {
          "indexed": true,
          "internalType": "address",
          "name": "previousOwner",
          "type": "address"
        },
        {
          "indexed": true,
          "internalType": "address",
          "name": "newOwner",
          "type": "address"
        }
      ],
      "name": "OwnershipTransferred",
      "type": "event"
    },
    {
      "anonymous": false,
      "inputs": [
        {
          "indexed": true,
          "internalType": "address",
          "name": "from",
          "type": "address"
        },
        {
          "indexed": true,
          "internalType": "address",
          "name": "to",
          "type": "address"
        },
        {
          "indexed": true,
          "internalType": "uint256",
          "name": "tokenId",
          "type": "uint256"
        }
      ],
      "name": "Transfer",
      "type": "event"
    },
    {
      "inputs": [
        {
          "internalType": "address",
          "name": "to",
          "type": "address"
        },
        {
          "internalType": "uint256",
          "name": "tokenId",
          "type": "uint256"
        }
      ],
      "name": "approve",
      "outputs": [],
      "stateMutability": "nonpayable",
      "type": "function"
    },
    {
      "inputs": [
        {
          "internalType": "address",
          "name": "owner",
          "type": "address"
        }
      ],
      "name": "balanceOf",
      "outputs": [
        {
          "internalType": "uint256",
          "name": "",
          "type": "uint256"
        }
      ],
      "stateMutability": "view",
      "type": "function"
    },
    {
      "inputs": [
        {
          "internalType": "uint256",
          "name": "tokenId",
          "type": "uint256"
        }
      ],
      "name": "getApproved",
      "outputs": [
        {
          "internalType": "address",
          "name": "",
          "type": "address"
        }
      ],
      "stateMutability": "view",
      "type": "function"
    },
    {
      "inputs": [
        {
          "internalType": "string",
          "name": "mobileNumber",
          "type": "string"
        }
      ],
      "name": "getWalletByMobile",
      "outputs": [
        {
          "internalType": "address",
          "name": "",
          "type": "address"
        }
      ],
      "stateMutability": "view",
      "type": "function"
    },
    {
      "inputs": [],
      "name": "initialize",
      "outputs": [],
      "stateMutability": "nonpayable",
      "type": "function"
    },
    {
      "inputs": [
        {
          "internalType": "address",
          "name": "owner",
          "type": "address"
        },
        {
          "internalType": "address",
          "name": "operator",
          "type": "address"
        }
      ],
      "name": "isApprovedForAll",
      "outputs": [
        {
          "internalType": "bool",
          "name": "",
          "type": "bool"
        }
      ],
      "stateMutability": "view",
      "type": "function"
    },
    {
      "inputs": [
        {
          "internalType": "bytes32",
          "name": "",
          "type": "bytes32"
        }
      ],
      "name": "mobileToWallet",
      "outputs": [
        {
          "internalType": "address",
          "name": "",
          "type": "address"
        }
      ],
      "stateMutability": "view",
      "type": "function"
    },
    {
      "inputs": [],
      "name": "name",
      "outputs": [
        {
          "internalType": "string",
          "name": "",
          "type": "string"
        }
      ],
      "stateMutability": "view",
      "type": "function"
    },
    {
      "inputs": [],
      "name": "owner",
      "outputs": [
        {
          "internalType": "address",
          "name": "",
          "type": "address"
        }
      ],
      "stateMutability": "view",
      "type": "function"
    },
    {
      "inputs": [
        {
          "internalType": "uint256",
          "name": "tokenId",
          "type": "uint256"
        }
      ],
      "name": "ownerOf",
      "outputs": [
        {
          "internalType": "address",
          "name": "",
          "type": "address"
        }
      ],
      "stateMutability": "view",
      "type": "function"
    },
    {
      "inputs": [
        {
          "internalType": "string",
          "name": "mobileNumber",
          "type": "string"
        },
        {
          "internalType": "string",
          "name": "metadataURI",
          "type": "string"
        }
      ],
      "name": "registerMobile",
      "outputs": [],
      "stateMutability": "nonpayable",
      "type": "function"
    },
    {
      "inputs": [],
      "name": "renounceOwnership",
      "outputs": [],
      "stateMutability": "nonpayable",
      "type": "function"
    },
    {
      "inputs": [
        {
          "internalType": "address",
          "name": "from",
          "type": "address"
        },
        {
          "internalType": "address",
          "name": "to",
          "type": "address"
        },
        {
          "internalType": "uint256",
          "name": "tokenId",
          "type": "uint256"
        }
      ],
      "name": "safeTransferFrom",
      "outputs": [],
      "stateMutability": "nonpayable",
      "type": "function"
    },
    {
      "inputs": [
        {
          "internalType": "address",
          "name": "from",
          "type": "address"
        },
        {
          "internalType": "address",
          "name": "to",
          "type": "address"
        },
        {
          "internalType": "uint256",
          "name": "tokenId",
          "type": "uint256"
        },
        {
          "internalType": "bytes",
          "name": "data",
          "type": "bytes"
        }
      ],
      "name": "safeTransferFrom",
      "outputs": [],
      "stateMutability": "nonpayable",
      "type": "function"
    },
    {
      "inputs": [
        {
          "internalType": "address",
          "name": "operator",
          "type": "address"
        },
        {
          "internalType": "bool",
          "name": "approved",
          "type": "bool"
        }
      ],
      "name": "setApprovalForAll",
      "outputs": [],
      "stateMutability": "nonpayable",
      "type": "function"
    },
    {
      "inputs": [
        {
          "internalType": "bytes4",
          "name": "interfaceId",
          "type": "bytes4"
        }
      ],
      "name": "supportsInterface",
      "outputs": [
        {
          "internalType": "bool",
          "name": "",
          "type": "bool"
        }
      ],
      "stateMutability": "view",
      "type": "function"
    },
    {
      "inputs": [],
      "name": "symbol",
      "outputs": [
        {
          "internalType": "string",
          "name": "",
          "type": "string"
        }
      ],
      "stateMutability": "view",
      "type": "function"
    },
    {
      "inputs": [
        {
          "internalType": "uint256",
          "name": "tokenId",
          "type": "uint256"
        }
      ],
      "name": "tokenURI",
      "outputs": [
        {
          "internalType": "string",
          "name": "",
          "type": "string"
        }
      ],
      "stateMutability": "view",
      "type": "function"
    },
    {
      "inputs": [
        {
          "internalType": "address",
          "name": "from",
          "type": "address"
        },
        {
          "internalType": "address",
          "name": "to",
          "type": "address"
        },
        {
          "internalType": "uint256",
          "name": "tokenId",
          "type": "uint256"
        }
      ],
      "name": "transferFrom",
      "outputs": [],
      "stateMutability": "nonpayable",
      "type": "function"
    },
    {
      "inputs": [
        {
          "internalType": "address",
          "name": "newOwner",
          "type": "address"
        }
      ],
      "name": "transferOwnership",
      "outputs": [],
      "stateMutability": "nonpayable",
      "type": "function"
    },
    {
      "inputs": [
        {
          "internalType": "address",
          "name": "",
          "type": "address"
        }
      ],
      "name": "walletToToken",
      "outputs": [
        {
          "internalType": "uint256",
          "name": "",
          "type": "uint256"
        }
      ],
      "stateMutability": "view",
      "type": "function"
    }
  ],
  "bytecode": "0x6080604052348015600f57600080fd5b50611a438061001f6000396000f3fe608060405234801561001057600080fd5b50600436106101375760003560e01c8063715018a6116100b8578063a22cb4651161007c578063a22cb465146102a1578063a8831071146102b4578063b88d4fde146102dd578063c87b56dd146102f0578063e985e9c514610303578063f2fde38b1461031657600080fd5b8063715018a61461024657806376456b421461024e5780638129fc1c146102615780638da5cb5b1461026957806395d89b411461029957600080fd5b8063095ea7b3116100ff578063095ea7b3146101e757806323b872dd146101fa57806342842e0e1461020d5780636352211e1461022057806370a082311461023357600080fd5b806301ffc9a71461013c57806303a1b24e1461016457806305cd6eb91461019257806306fdde03146101a7578063081812fc146101bc575b600080fd5b61014f61014a366004611456565b610329565b60405190151581526020015b60405180910390f35b61018461017236600461148f565b60026020526000908152604090205481565b60405190815260200161015b565b6101a56101a036600461155a565b610354565b005b6101af610492565b60405161015b9190611613565b6101cf6101ca366004611626565b610536565b6040516001600160a01b03909116815260200161015b565b6101a56101f536600461163f565b61054b565b6101a5610208366004611669565b61055a565b6101a561021b366004611669565b6105e5565b6101cf61022e366004611626565b610605565b61018461024136600461148f565b610610565b6101a561066c565b6101cf61025c3660046116a6565b610680565b6101a56106c9565b7f9016d09d72d40fdae2fd8ceac6b6234c7706214fd39c1cd1e609a0528c199300546001600160a01b03166101cf565b6101af610827565b6101a56102af3660046116db565b610866565b6101cf6102c2366004611626565b6001602052600090815260409020546001600160a01b031681565b6101a56102eb366004611717565b610871565b6101af6102fe366004611626565b610889565b61014f610311366004611793565b6109be565b6101a561032436600461148f565b610a0b565b60006001600160e01b03198216632483248360e11b148061034e575061034e82610a49565b92915050565b60008260405160200161036791906117c6565b60408051601f198184030181529181528151602092830120600081815260019093529120549091506001600160a01b0316156103ea5760405162461bcd60e51b815260206004820181905260248201527f4d6f62696c65206e756d62657220616c7265616479207265676973746572656460448201526064015b60405180910390fd5b600080546103f99060016117f8565b90506104053382610a99565b61040f8184610afe565b600082815260016020908152604080832080546001600160a01b031916339081179091558352600290915281208290558054908061044c8361180b565b9091555050604080518381526020810183905233917fa4dec00b15ed87d364694811da753b62cbbc5fec5d29ac4874bb7fbd4eb344f5910160405180910390a250505050565b6000805160206119ee83398151915280546060919081906104b290611824565b80601f01602080910402602001604051908101604052809291908181526020018280546104de90611824565b801561052b5780601f106105005761010080835404028352916020019161052b565b820191906000526020600020905b81548152906001019060200180831161050e57829003601f168201915b505050505091505090565b600061054182610b71565b5061034e82610ba9565b610556828233610be3565b5050565b6001600160a01b03821661058457604051633250574960e11b8152600060048201526024016103e1565b6000610591838333610bf0565b9050836001600160a01b0316816001600160a01b0316146105df576040516364283d7b60e01b81526001600160a01b03808616600483015260248201849052821660448201526064016103e1565b50505050565b61060083838360405180602001604052806000815250610871565b505050565b600061034e82610b71565b60006000805160206119ee8339815191526001600160a01b03831661064b576040516322718ad960e21b8152600060048201526024016103e1565b6001600160a01b039092166000908152600390920160205250604090205490565b610674610cfa565b61067e6000610d55565b565b6000808260405160200161069491906117c6565b60408051601f198184030181529181528151602092830120600090815260019092529020546001600160a01b03169392505050565b7ff0c57e16840df040f15088dc2f81fe391c3923bec73e23a9662efc9c229c6a008054600160401b810460ff16159067ffffffffffffffff1660008115801561070f5750825b905060008267ffffffffffffffff16600114801561072c5750303b155b90508115801561073a575080155b156107585760405163f92ee8a960e01b815260040160405180910390fd5b845467ffffffffffffffff19166001178555831561078257845460ff60401b1916600160401b1785555b6107d1604051806040016040528060118152602001704669617473656e64204964656e7469747960781b815250604051806040016040528060048152602001631194d25160e21b815250610dc6565b6107da33610dd8565b831561082057845460ff60401b19168555604051600181527fc7f505b2f371ae2175ee4913f4499e1f2633a7b5936321eed1cdaeb6115181d29060200160405180910390a15b5050505050565b7f80bb2b638cc20bc4d0a60d66940f3ab4a00c1d7b313497ca82fb0b4ab007930180546060916000805160206119ee833981519152916104b290611824565b610556338383610de9565b61087c84848461055a565b6105df3385858585610e9a565b60607f0542a41881ee128a365a727b282c86fa859579490b9bb45aab8503648c8e79006108b583610b71565b50600083815260208290526040812080546108cf90611824565b80601f01602080910402602001604051908101604052809291908181526020018280546108fb90611824565b80156109485780601f1061091d57610100808354040283529160200191610948565b820191906000526020600020905b81548152906001019060200180831161092b57829003601f168201915b50505050509050600061096660408051602081019091526000815290565b9050805160000361097957509392505050565b8151156109ac57808260405160200161099392919061185e565b6040516020818303038152906040529350505050919050565b6109b585610fc4565b95945050505050565b6001600160a01b0391821660009081527f80bb2b638cc20bc4d0a60d66940f3ab4a00c1d7b313497ca82fb0b4ab00793056020908152604080832093909416825291909152205460ff1690565b610a13610cfa565b6001600160a01b038116610a3d57604051631e4fbdf760e01b8152600060048201526024016103e1565b610a4681610d55565b50565b60006001600160e01b031982166380ac58cd60e01b1480610a7a57506001600160e01b03198216635b5e139f60e01b145b8061034e57506301ffc9a760e01b6001600160e01b031983161461034e565b6001600160a01b038216610ac357604051633250574960e11b8152600060048201526024016103e1565b6000610ad183836000610bf0565b90506001600160a01b03811615610600576040516339e3563760e11b8152600060048201526024016103e1565b60008281527f0542a41881ee128a365a727b282c86fa859579490b9bb45aab8503648c8e790060208190526040909120610b3883826118d4565b506040518381527ff8e1a15aba9398e019f0b49df1a4fde98ee17ae345cb5f6b5e2c27f5033e8ce79060200160405180910390a1505050565b600080610b7d83611039565b90506001600160a01b03811661034e57604051637e27328960e01b8152600481018490526024016103e1565b60009081527f80bb2b638cc20bc4d0a60d66940f3ab4a00c1d7b313497ca82fb0b4ab007930460205260409020546001600160a01b031690565b6106008383836001611073565b60006000805160206119ee83398151915281610c0b85611039565b90506001600160a01b03841615610c2757610c27818587611189565b6001600160a01b03811615610c6757610c44600086600080611073565b6001600160a01b0381166000908152600383016020526040902080546000190190555b6001600160a01b03861615610c98576001600160a01b03861660009081526003830160205260409020805460010190555b600085815260028301602052604080822080546001600160a01b0319166001600160a01b038a811691821790925591518893918516917fddf252ad1be2c89b69c2b068fc378daa952ba7f163c4a11628f55a4df523b3ef91a495945050505050565b33610d2c7f9016d09d72d40fdae2fd8ceac6b6234c7706214fd39c1cd1e609a0528c199300546001600160a01b031690565b6001600160a01b03161461067e5760405163118cdaa760e01b81523360048201526024016103e1565b7f9016d09d72d40fdae2fd8ceac6b6234c7706214fd39c1cd1e609a0528c19930080546001600160a01b031981166001600160a01b03848116918217845560405192169182907f8be0079c531659141344cd1fd0a4f28419497f9722a3daafe3b4186f6b6457e090600090a3505050565b610dce6111ed565b6105568282611236565b610de06111ed565b610a4681611267565b6000805160206119ee8339815191526001600160a01b038316610e2a57604051630b61174360e31b81526001600160a01b03841660048201526024016103e1565b6001600160a01b038481166000818152600584016020908152604080832094881680845294825291829020805460ff191687151590811790915591519182527f17307eab39ab6107e8899845ad3d59bd9653f200f220920489ca2b5937696c31910160405180910390a350505050565b6001600160a01b0383163b1561082057604051630a85bd0160e11b81526001600160a01b0384169063150b7a0290610edc908890889087908790600401611993565b6020604051808303816000875af1925050508015610f17575060408051601f3d908101601f19168201909252610f14918101906119d0565b60015b610f80573d808015610f45576040519150601f19603f3d011682016040523d82523d6000602084013e610f4a565b606091505b508051600003610f7857604051633250574960e11b81526001600160a01b03851660048201526024016103e1565b805181602001fd5b6001600160e01b03198116630a85bd0160e11b14610fbc57604051633250574960e11b81526001600160a01b03851660048201526024016103e1565b505050505050565b6060610fcf82610b71565b506000610fe760408051602081019091526000815290565b905060008151116110075760405180602001604052806000815250611032565b806110118461126f565b60405160200161102292919061185e565b6040516020818303038152906040525b9392505050565b60009081527f80bb2b638cc20bc4d0a60d66940f3ab4a00c1d7b313497ca82fb0b4ab007930260205260409020546001600160a01b031690565b6000805160206119ee833981519152818061109657506001600160a01b03831615155b156111585760006110a685610b71565b90506001600160a01b038416158015906110d25750836001600160a01b0316816001600160a01b031614155b80156110e557506110e381856109be565b155b1561110e5760405163a9fbf51f60e01b81526001600160a01b03851660048201526024016103e1565b82156111565784866001600160a01b0316826001600160a01b03167f8c5be1e5ebec7d5bd14f71427d1e84f3dd0314c0f7b2291e5b200ac8c7c3b92560405160405180910390a45b505b600093845260040160205250506040902080546001600160a01b0319166001600160a01b0392909216919091179055565b611194838383611302565b610600576001600160a01b0383166111c257604051637e27328960e01b8152600481018290526024016103e1565b60405163177e802f60e01b81526001600160a01b0383166004820152602481018290526044016103e1565b7ff0c57e16840df040f15088dc2f81fe391c3923bec73e23a9662efc9c229c6a0054600160401b900460ff1661067e57604051631afcd79f60e31b815260040160405180910390fd5b61123e6111ed565b6000805160206119ee8339815191528061125884826118d4565b50600181016105df83826118d4565b610a136111ed565b6060600061127c83611368565b600101905060008167ffffffffffffffff81111561129c5761129c6114aa565b6040519080825280601f01601f1916602001820160405280156112c6576020820181803683370190505b5090508181016020015b600019016f181899199a1a9b1b9c1cb0b131b232b360811b600a86061a8153600a85049450846112d057509392505050565b60006001600160a01b038316158015906113605750826001600160a01b0316846001600160a01b0316148061133c575061133c84846109be565b806113605750826001600160a01b031661135583610ba9565b6001600160a01b0316145b949350505050565b60008072184f03e93ff9f4daa797ed6e38ed64bf6a1f0160401b83106113a75772184f03e93ff9f4daa797ed6e38ed64bf6a1f0160401b830492506040015b6d04ee2d6d415b85acef810000000083106113d3576d04ee2d6d415b85acef8100000000830492506020015b662386f26fc1000083106113f157662386f26fc10000830492506010015b6305f5e1008310611409576305f5e100830492506008015b612710831061141d57612710830492506004015b6064831061142f576064830492506002015b600a831061034e5760010192915050565b6001600160e01b031981168114610a4657600080fd5b60006020828403121561146857600080fd5b813561103281611440565b80356001600160a01b038116811461148a57600080fd5b919050565b6000602082840312156114a157600080fd5b61103282611473565b634e487b7160e01b600052604160045260246000fd5b60008067ffffffffffffffff8411156114db576114db6114aa565b50604051601f19601f85018116603f0116810181811067ffffffffffffffff8211171561150a5761150a6114aa565b60405283815290508082840185101561152257600080fd5b83836020830137600060208583010152509392505050565b600082601f83011261154b57600080fd5b611032838335602085016114c0565b6000806040838503121561156d57600080fd5b823567ffffffffffffffff81111561158457600080fd5b6115908582860161153a565b925050602083013567ffffffffffffffff8111156115ad57600080fd5b6115b98582860161153a565b9150509250929050565b60005b838110156115de5781810151838201526020016115c6565b50506000910152565b600081518084526115ff8160208601602086016115c3565b601f01601f19169290920160200192915050565b60208152600061103260208301846115e7565b60006020828403121561163857600080fd5b5035919050565b6000806040838503121561165257600080fd5b61165b83611473565b946020939093013593505050565b60008060006060848603121561167e57600080fd5b61168784611473565b925061169560208501611473565b929592945050506040919091013590565b6000602082840312156116b857600080fd5b813567ffffffffffffffff8111156116cf57600080fd5b6113608482850161153a565b600080604083850312156116ee57600080fd5b6116f783611473565b91506020830135801515811461170c57600080fd5b809150509250929050565b6000806000806080858703121561172d57600080fd5b61173685611473565b935061174460208601611473565b925060408501359150606085013567ffffffffffffffff81111561176757600080fd5b8501601f8101871361177857600080fd5b611787878235602084016114c0565b91505092959194509250565b600080604083850312156117a657600080fd5b6117af83611473565b91506117bd60208401611473565b90509250929050565b600082516117d88184602087016115c3565b9190910192915050565b634e487b7160e01b600052601160045260246000fd5b8082018082111561034e5761034e6117e2565b60006001820161181d5761181d6117e2565b5060010190565b600181811c9082168061183857607f821691505b60208210810361185857634e487b7160e01b600052602260045260246000fd5b50919050565b600083516118708184602088016115c3565b8351908301906118848183602088016115c3565b01949350505050565b601f82111561060057806000526020600020601f840160051c810160208510156118b45750805b601f840160051c820191505b8181101561082057600081556001016118c0565b815167ffffffffffffffff8111156118ee576118ee6114aa565b611902816118fc8454611824565b8461188d565b6020601f821160018114611936576000831561191e5750848201515b600019600385901b1c1916600184901b178455610820565b600084815260208120601f198516915b828110156119665787850151825560209485019460019092019101611946565b50848210156119845786840151600019600387901b60f8161c191681555b50505050600190811b01905550565b6001600160a01b03858116825284166020820152604081018390526080606082018190526000906119c6908301846115e7565b9695505050505050565b6000602082840312156119e257600080fd5b81516110328161144056fe80bb2b638cc20bc4d0a60d66940f3ab4a00c1d7b313497ca82fb0b4ab0079300a2646970667358221220dc3e12281b87abbfcf678082727d42c60be457f1398da017782a8f50dddfa29f64736f6c634300081b0033",
  "linkReferences": {},
  "deployedLinkReferences": {}
}