{
  "_format": "hh-sol-artifact-1",
  "contractName": "TokenFaucet",
  "sourceName": "contracts/TokenFaucet.sol",
  "abi": [
    {
      "inputs": [
        {
          "internalType": "address",
          "name": "target",
          "type": "address"
        }
      ],
      "name": "AddressEmptyCode",
      "type": "error"
    },
    {
      "inputs": [
        {
          "internalType": "address",
          "name": "implementation",
          "type": "address"
        }
      ],
      "name": "ERC1967InvalidImplementation",
      "type": "error"
    },
    {
      "inputs": [],
      "name": "ERC1967NonPayable",
      "type": "error"
    },
    {
      "inputs": [],
      "name": "FailedCall",
      "type": "error"
    },
    {
      "inputs": [],
      "name": "InvalidInitialization",
      "type": "error"
    },
    {
      "inputs": [],
      "name": "NotInitializing",
      "type": "error"
    },
    {
      "inputs": [
        {
          "internalType": "address",
          "name": "owner",
          "type": "address"
        }
      ],
      "name": "OwnableInvalidOwner",
      "type": "error"
    },
    {
      "inputs": [
        {
          "internalType": "address",
          "name": "account",
          "type": "address"
        }
      ],
      "name": "OwnableUnauthorizedAccount",
      "type": "error"
    },
    {
      "inputs": [],
      "name": "ReentrancyGuardReentrantCall",
      "type": "error"
    },
    {
      "inputs": [
        {
          "internalType": "address",
          "name": "token",
          "type": "address"
        }
      ],
      "name": "SafeERC20FailedOperation",
      "type": "error"
    },
    {
      "inputs": [],
      "name": "UUPSUnauthorizedCallContext",
      "type": "error"
    },
    {
      "inputs": [
        {
          "internalType": "bytes32",
          "name": "slot",
          "type": "bytes32"
        }
      ],
      "name": "UUPSUnsupportedProxiableUUID",
      "type": "error"
    },
    {
      "anonymous": false,
      "inputs": [
        {
          "indexed": false,
          "internalType": "uint64",
          "name": "version",
          "type": "uint64"
        }
      ],
      "name": "Initialized",
      "type": "event"
    },
    {
      "anonymous": false,
      "inputs": [
        {
          "indexed": true,
          "internalType": "address",
          "name": "previousOwner",
          "type": "address"
        },
        {
          "indexed": true,
          "internalType": "address",
          "name": "newOwner",
          "type": "address"
        }
      ],
      "name": "OwnershipTransferred",
      "type": "event"
    },
    {
      "anonymous": false,
      "inputs": [
        {
          "indexed": true,
          "internalType": "address",
          "name": "relayer",
          "type": "address"
        },
        {
          "indexed": false,
          "internalType": "bool",
          "name": "status",
          "type": "bool"
        }
      ],
      "name": "RelayerUpdated",
      "type": "event"
    },
    {
      "anonymous": false,
      "inputs": [
        {
          "indexed": true,
          "internalType": "address",
          "name": "user",
          "type": "address"
        },
        {
          "indexed": false,
          "internalType": "uint256",
          "name": "ethAmount",
          "type": "uint256"
        },
        {
          "indexed": false,
          "internalType": "uint256",
          "name": "tokenAmount",
          "type": "uint256"
        }
      ],
      "name": "TokensDistributed",
      "type": "event"
    },
    {
      "anonymous": false,
      "inputs": [
        {
          "indexed": true,
          "internalType": "address",
          "name": "user",
          "type": "address"
        },
        {
          "indexed": true,
          "internalType": "address",
          "name": "relayer",
          "type": "address"
        }
      ],
      "name": "TokensRequested",
      "type": "event"
    },
    {
      "anonymous": false,
      "inputs": [
        {
          "indexed": true,
          "internalType": "address",
          "name": "implementation",
          "type": "address"
        }
      ],
      "name": "Upgraded",
      "type": "event"
    },
    {
      "inputs": [],
      "name": "COOLDOWN_TIME",
      "outputs": [
        {
          "internalType": "uint256",
          "name": "",
          "type": "uint256"
        }
      ],
      "stateMutability": "view",
      "type": "function"
    },
    {
      "inputs": [],
      "name": "ETH_REQUEST_AMOUNT",
      "outputs": [
        {
          "internalType": "uint256",
          "name": "",
          "type": "uint256"
        }
      ],
      "stateMutability": "view",
      "type": "function"
    },
    {
      "inputs": [],
      "name": "REQUEST_AMOUNT",
      "outputs": [
        {
          "internalType": "uint256",
          "name": "",
          "type": "uint256"
        }
      ],
      "stateMutability": "view",
      "type": "function"
    },
    {
      "inputs": [],
      "name": "UPGRADE_INTERFACE_VERSION",
      "outputs": [
        {
          "internalType": "string",
          "name": "",
          "type": "string"
        }
      ],
      "stateMutability": "view",
      "type": "function"
    },
    {
      "inputs": [],
      "name": "fsend",
      "outputs": [
        {
          "internalType": "contract IERC20",
          "name": "",
          "type": "address"
        }
      ],
      "stateMutability": "view",
      "type": "function"
    },
    {
      "inputs": [],
      "name": "ghsfiat",
      "outputs": [
        {
          "internalType": "contract IERC20",
          "name": "",
          "type": "address"
        }
      ],
      "stateMutability": "view",
      "type": "function"
    },
    {
      "inputs": [
        {
          "internalType": "address",
          "name": "_tether",
          "type": "address"
        },
        {
          "internalType": "address",
          "name": "_fsend",
          "type": "address"
        },
        {
          "internalType": "address",
          "name": "_ghsfiat",
          "type": "address"
        }
      ],
      "name": "initialize",
      "outputs": [],
      "stateMutability": "nonpayable",
      "type": "function"
    },
    {
      "inputs": [
        {
          "internalType": "address",
          "name": "",
          "type": "address"
        }
      ],
      "name": "lastRequestTime",
      "outputs": [
        {
          "internalType": "uint256",
          "name": "",
          "type": "uint256"
        }
      ],
      "stateMutability": "view",
      "type": "function"
    },
    {
      "inputs": [],
      "name": "owner",
      "outputs": [
        {
          "internalType": "address",
          "name": "",
          "type": "address"
        }
      ],
      "stateMutability": "view",
      "type": "function"
    },
    {
      "inputs": [],
      "name": "proxiableUUID",
      "outputs": [
        {
          "internalType": "bytes32",
          "name": "",
          "type": "bytes32"
        }
      ],
      "stateMutability": "view",
      "type": "function"
    },
    {
      "inputs": [],
      "name": "renounceOwnership",
      "outputs": [],
      "stateMutability": "nonpayable",
      "type": "function"
    },
    {
      "inputs": [],
      "name": "requestTokens",
      "outputs": [],
      "stateMutability": "nonpayable",
      "type": "function"
    },
    {
      "inputs": [
        {
          "internalType": "address",
          "name": "user",
          "type": "address"
        }
      ],
      "name": "requestTokensViaRelayer",
      "outputs": [],
      "stateMutability": "nonpayable",
      "type": "function"
    },
    {
      "inputs": [],
      "name": "tether",
      "outputs": [
        {
          "internalType": "contract IERC20",
          "name": "",
          "type": "address"
        }
      ],
      "stateMutability": "view",
      "type": "function"
    },
    {
      "inputs": [
        {
          "internalType": "address",
          "name": "newOwner",
          "type": "address"
        }
      ],
      "name": "transferOwnership",
      "outputs": [],
      "stateMutability": "nonpayable",
      "type": "function"
    },
    {
      "inputs": [
        {
          "internalType": "address",
          "name": "",
          "type": "address"
        }
      ],
      "name": "trustedRelayers",
      "outputs": [
        {
          "internalType": "bool",
          "name": "",
          "type": "bool"
        }
      ],
      "stateMutability": "view",
      "type": "function"
    },
    {
      "inputs": [
        {
          "internalType": "address",
          "name": "relayer",
          "type": "address"
        },
        {
          "internalType": "bool",
          "name": "status",
          "type": "bool"
        }
      ],
      "name": "updateRelayer",
      "outputs": [],
      "stateMutability": "nonpayable",
      "type": "function"
    },
    {
      "inputs": [
        {
          "internalType": "address",
          "name": "newImplementation",
          "type": "address"
        },
        {
          "internalType": "bytes",
          "name": "data",
          "type": "bytes"
        }
      ],
      "name": "upgradeToAndCall",
      "outputs": [],
      "stateMutability": "payable",
      "type": "function"
    },
    {
      "inputs": [
        {
          "internalType": "uint256",
          "name": "amount",
          "type": "uint256"
        }
      ],
      "name": "withdrawETH",
      "outputs": [],
      "stateMutability": "nonpayable",
      "type": "function"
    },
    {
      "inputs": [
        {
          "internalType": "contract IERC20",
          "name": "token",
          "type": "address"
        },
        {
          "internalType": "uint256",
          "name": "amount",
          "type": "uint256"
        }
      ],
      "name": "withdrawTokens",
      "outputs": [],
      "stateMutability": "nonpayable",
      "type": "function"
    },
    {
      "stateMutability": "payable",
      "type": "receive"
    }
  ],
  "bytecode": "0x60a060405230608052348015601357600080fd5b5060805161146561003d60003960008181610b9601528181610bbf0152610d0001526114656000f3fe6080604052600436106101235760003560e01c80638da5cb5b116100a0578063b9b48f5011610064578063b9b48f5014610322578063c0c53b8b14610362578063ca08683814610382578063f14210a61461039d578063f2fde38b146103bd57600080fd5b80638da5cb5b1461026f5780639569505e1461028457806399a4394c146102a45780639dbf5eca146102c4578063ad3cb1cc146102e457600080fd5b80634f1ef286116100e75780634f1ef286146101fb57806352d1902d1461020e5780635efc071a14610223578063715018a6146102435780637d2632451461025857600080fd5b806306b091f91461012f57806316d26e3a14610151578063359cf2b714610181578063394f61811461019657806339661734146101c357600080fd5b3661012a57005b600080fd5b34801561013b57600080fd5b5061014f61014a366004611175565b6103dd565b005b34801561015d57600080fd5b5061016e68056bc75e2d6310000081565b6040519081526020015b60405180910390f35b34801561018d57600080fd5b5061014f6104c2565b3480156101a257600080fd5b5061016e6101b13660046111a1565b60036020526000908152604090205481565b3480156101cf57600080fd5b506002546101e3906001600160a01b031681565b6040516001600160a01b039091168152602001610178565b61014f6102093660046111d4565b6104ec565b34801561021a57600080fd5b5061016e610507565b34801561022f57600080fd5b506000546101e3906001600160a01b031681565b34801561024f57600080fd5b5061014f610524565b34801561026457600080fd5b5061016e6201518081565b34801561027b57600080fd5b506101e3610536565b34801561029057600080fd5b506001546101e3906001600160a01b031681565b3480156102b057600080fd5b5061014f6102bf3660046111a1565b610564565b3480156102d057600080fd5b5061014f6102df3660046112a0565b610624565b3480156102f057600080fd5b50610315604051806040016040528060058152602001640352e302e360dc1b81525081565b6040516101789190611302565b34801561032e57600080fd5b5061035261033d3660046111a1565b60046020526000908152604090205460ff1681565b6040519015158152602001610178565b34801561036e57600080fd5b5061014f61037d366004611335565b61068c565b34801561038e57600080fd5b5061016e66038d7ea4c6800081565b3480156103a957600080fd5b5061014f6103b8366004611380565b6107eb565b3480156103c957600080fd5b5061014f6103d83660046111a1565b6108e5565b6103e5610920565b6040516370a0823160e01b815230600482015281906001600160a01b038416906370a0823190602401602060405180830381865afa15801561042b573d6000803e3d6000fd5b505050506040513d601f19601f8201168201806040525081019061044f9190611399565b10156104a25760405162461bcd60e51b815260206004820152601a60248201527f496e73756666696369656e7420746f6b656e2062616c616e636500000000000060448201526064015b60405180910390fd5b6104be6104ad610536565b6001600160a01b0384169083610952565b5050565b6104ca6109a9565b6104d3336109e1565b6104ea600160008051602061141083398151915255565b565b6104f4610b8b565b6104fd82610c30565b6104be8282610c38565b6000610511610cf5565b506000805160206113f083398151915290565b61052c610920565b6104ea6000610d3e565b7f9016d09d72d40fdae2fd8ceac6b6234c7706214fd39c1cd1e609a0528c199300546001600160a01b031690565b3360009081526004602052604090205460ff166105c35760405162461bcd60e51b815260206004820152601960248201527f4e6f7420616e20617574686f72697a65642072656c61796572000000000000006044820152606401610499565b6105cb6109a9565b6105d4816109e1565b60405133906001600160a01b038316907fc80b429d662761abee59191552107aa5c0212fb3104fb6de913908b7ab4f8b0690600090a3610621600160008051602061141083398151915255565b50565b61062c610920565b6001600160a01b038216600081815260046020908152604091829020805460ff191685151590811790915591519182527f4b36b2e66f38ed349bec532105790177f1283bcbc094e6cd48565195d3033c4391015b60405180910390a25050565b7ff0c57e16840df040f15088dc2f81fe391c3923bec73e23a9662efc9c229c6a008054600160401b810460ff16159067ffffffffffffffff166000811580156106d25750825b905060008267ffffffffffffffff1660011480156106ef5750303b155b9050811580156106fd575080155b1561071b5760405163f92ee8a960e01b815260040160405180910390fd5b845467ffffffffffffffff19166001178555831561074557845460ff60401b1916600160401b1785555b61074e33610daf565b610756610dc0565b61075e610dc8565b600080546001600160a01b03808b166001600160a01b031992831617909255600180548a8416908316179055600280549289169290911691909117905583156107e157845460ff60401b19168555604051600181527fc7f505b2f371ae2175ee4913f4499e1f2633a7b5936321eed1cdaeb6115181d29060200160405180910390a15b5050505050505050565b6107f3610920565b804710156108435760405162461bcd60e51b815260206004820152601860248201527f496e73756666696369656e74204554482062616c616e636500000000000000006044820152606401610499565b600061084d610536565b6001600160a01b03168260405160006040518083038185875af1925050503d8060008114610897576040519150601f19603f3d011682016040523d82523d6000602084013e61089c565b606091505b50509050806104be5760405162461bcd60e51b8152602060048201526015602482015274115512081dda5d1a191c985dd85b0819985a5b1959605a1b6044820152606401610499565b6108ed610920565b6001600160a01b03811661091757604051631e4fbdf760e01b815260006004820152602401610499565b61062181610d3e565b33610929610536565b6001600160a01b0316146104ea5760405163118cdaa760e01b8152336004820152602401610499565b604080516001600160a01b038416602482015260448082018490528251808303909101815260649091019091526020810180516001600160e01b031663a9059cbb60e01b1790526109a4908490610dd8565b505050565b6000805160206114108339815191528054600119016109db57604051633ee5aeb560e01b815260040160405180910390fd5b60029055565b6001600160a01b038116600090815260036020526040902054610a089062015180906113b2565b421015610a575760405162461bcd60e51b815260206004820152601760248201527f436f6f6c646f776e20706572696f64206e6f74206d65740000000000000000006044820152606401610499565b6001600160a01b03808216600090815260036020526040812042905554610a8091839116610e4f565b600154610a979082906001600160a01b0316610e4f565b600254610aae9082906001600160a01b0316610e4f565b600066038d7ea4c680004710610b2e576000826001600160a01b031666038d7ea4c6800060405160006040518083038185875af1925050503d8060008114610b12576040519150601f19603f3d011682016040523d82523d6000602084013e610b17565b606091505b505090508015610b2c5766038d7ea4c6800091505b505b6040805182815268056bc75e2d6310000060208201526001600160a01b038416917ff75d5c8724380d126d0ce1ef2c57b7e856e7fe00051f6184966b31323463cf129101610680565b600160008051602061141083398151915255565b306001600160a01b037f0000000000000000000000000000000000000000000000000000000000000000161480610c1257507f00000000000000000000000000000000000000000000000000000000000000006001600160a01b0316610c066000805160206113f0833981519152546001600160a01b031690565b6001600160a01b031614155b156104ea5760405163703e46dd60e11b815260040160405180910390fd5b610621610920565b816001600160a01b03166352d1902d6040518163ffffffff1660e01b8152600401602060405180830381865afa925050508015610c92575060408051601f3d908101601f19168201909252610c8f91810190611399565b60015b610cba57604051634c9c8ce360e01b81526001600160a01b0383166004820152602401610499565b6000805160206113f08339815191528114610ceb57604051632a87526960e21b815260048101829052602401610499565b6109a48383610f2d565b306001600160a01b037f000000000000000000000000000000000000000000000000000000000000000016146104ea5760405163703e46dd60e11b815260040160405180910390fd5b7f9016d09d72d40fdae2fd8ceac6b6234c7706214fd39c1cd1e609a0528c19930080546001600160a01b031981166001600160a01b03848116918217845560405192169182907f8be0079c531659141344cd1fd0a4f28419497f9722a3daafe3b4186f6b6457e090600090a3505050565b610db7610f83565b61062181610fcc565b6104ea610f83565b610dd0610f83565b6104ea610fd4565b600080602060008451602086016000885af180610dfb576040513d6000823e3d81fd5b50506000513d91508115610e13578060011415610e20565b6001600160a01b0384163b155b15610e4957604051635274afe760e01b81526001600160a01b0385166004820152602401610499565b50505050565b6040516370a0823160e01b815230600482015268056bc75e2d63100000906001600160a01b038316906370a0823190602401602060405180830381865afa158015610e9e573d6000803e3d6000fd5b505050506040513d601f19601f82011682018060405250810190610ec29190611399565b1015610f105760405162461bcd60e51b815260206004820152601d60248201527f496e73756666696369656e7420746f6b656e7320696e206661756365740000006044820152606401610499565b6104be6001600160a01b0382168368056bc75e2d63100000610952565b610f3682610fdc565b6040516001600160a01b038316907fbc7cd75a20ee27fd9adebab32041f755214dbc6bffa90cc0225b39da2e5c2d3b90600090a2805115610f7b576109a48282611041565b6104be6110b9565b7ff0c57e16840df040f15088dc2f81fe391c3923bec73e23a9662efc9c229c6a0054600160401b900460ff166104ea57604051631afcd79f60e31b815260040160405180910390fd5b6108ed610f83565b610b77610f83565b806001600160a01b03163b60000361101257604051634c9c8ce360e01b81526001600160a01b0382166004820152602401610499565b6000805160206113f083398151915280546001600160a01b0319166001600160a01b0392909216919091179055565b6060600080846001600160a01b03168460405161105e91906113d3565b600060405180830381855af49150503d8060008114611099576040519150601f19603f3d011682016040523d82523d6000602084013e61109e565b606091505b50915091506110ae8583836110d8565b925050505b92915050565b34156104ea5760405163b398979f60e01b815260040160405180910390fd5b6060826110ed576110e882611137565b611130565b815115801561110457506001600160a01b0384163b155b1561112d57604051639996b31560e01b81526001600160a01b0385166004820152602401610499565b50805b9392505050565b8051156111475780518082602001fd5b60405163d6bda27560e01b815260040160405180910390fd5b6001600160a01b038116811461062157600080fd5b6000806040838503121561118857600080fd5b823561119381611160565b946020939093013593505050565b6000602082840312156111b357600080fd5b813561113081611160565b634e487b7160e01b600052604160045260246000fd5b600080604083850312156111e757600080fd5b82356111f281611160565b9150602083013567ffffffffffffffff81111561120e57600080fd5b8301601f8101851361121f57600080fd5b803567ffffffffffffffff811115611239576112396111be565b604051601f8201601f19908116603f0116810167ffffffffffffffff81118282101715611268576112686111be565b60405281815282820160200187101561128057600080fd5b816020840160208301376000602083830101528093505050509250929050565b600080604083850312156112b357600080fd5b82356112be81611160565b9150602083013580151581146112d357600080fd5b809150509250929050565b60005b838110156112f95781810151838201526020016112e1565b50506000910152565b60208152600082518060208401526113218160408501602087016112de565b601f01601f19169190910160400192915050565b60008060006060848603121561134a57600080fd5b833561135581611160565b9250602084013561136581611160565b9150604084013561137581611160565b809150509250925092565b60006020828403121561139257600080fd5b5035919050565b6000602082840312156113ab57600080fd5b5051919050565b808201808211156110b357634e487b7160e01b600052601160045260246000fd5b600082516113e58184602087016112de565b919091019291505056fe360894a13ba1a3210667c828492db98dca3e2076cc3735a920a3ca505d382bbc9b779b17422d0df92223018b32b4d1fa46e071723d6817e2486d003becc55f00a2646970667358221220d782ef0df55614775880f2e12db7f4b10a578a6a401745e88a3b8d911143550964736f6c634300081b0033",
  "linkReferences": {},
  "deployedLinkReferences": {}
}